S0160000436F6D70616E696F6E5F437562652E737265638C
S113000009C019C018C038C016C015C014C013C028
S113001012C011C011241FBECFE9CDBF10E0A0E66D
S1130020B0E0E2EEF0E002C005900D92A236B10716
S1130030D9F714D054C0E4CF813019F482E088BBDE
S11300400895823019F484E188BB0895833019F44B
S11300508CE188BB08958EE188BB089587B387BB84
S1130060B99ABA9ABB9ABC9A83B7856083BF89B799
S1130070826089BF7894FFCF1F920F920FB60F92C0
S113008011242F933F934F935F936F937F938F9399
S11300909F93AF93BF93EF93FF93809160008F5F23
S11300A08093600080FD02C018BA08C08695C4DF42
S11300B080916000883010F010926000FF91EF9101
S11300C0BF91AF919F918F917F916F915F914F916C
S11300D03F912F910F900FBE0F901F901895F89499
S10500E0FFCF4C
S10500E2060012
S9030000FC
