:1000000009C021C020C040C01EC01DC01CC01BC0F4
:100010001AC019C011241FBECFE9CDBF10E0A0E661
:10002000B0E0E4E0F2E002C005900D92A436B10722
:10003000D9F720E0A4E6B0E001C01D92A636B207D1
:10004000E1F714D0DDC0DCCF813019F482E088BB49
:100050000895823019F484E188BB0895833019F43F
:100060008CE188BB08958EE188BB089587B387BB78
:10007000B99ABA9ABB9ABC9A83B7846083BF89B78E
:10008000826089BF7894FFCF1F920F920FB60F92B4
:1000900011242F933F934F935F936F937F938F938D
:1000A0009F93AF93BF93EF93FF93909162009093D0
:1000B000610086B381708093620081110BC0911141
:1000C00006C0809164008F5F8093640003C010922B
:1000D000640016C080916400853091F480916000C6
:1000E000833039F483B7846083BF81E080936000FC
:1000F0000BC0823009F064C083E0809360005EC072
:10010000809160008130A1F58091650080FF2AC058
:1001100020916300822F837019F480E188BB0FC0A7
:10012000822F63E061D0911103C088E088BB07C0D3
:1001300020FD03C084E088BB02C082E088BB8091C0
:1001400063008F5F80936300813160F083B78560C7
:1001500083BF82E08093600083E08093630010920D
:10016000650031C0809165008F5F809365002BC072
:10017000823021F59091650090FD02C018BA18C038
:1001800080916300833031F4983020F49F5F909326
:10019000650019C059DF809163008F5F8093630011
:1001A000853030F01092650081E0809363000BC0D1
:1001B000809165008F5F8093650005C018BA03C009
:1001C0008130E1F7A1CFFF91EF91BF91AF919F9166
:1001D0008F917F916F915F914F913F912F910F90F0
:1001E0000FBE0F901F901895991B79E004C0991FBE
:1001F000961708F0961B881F7A95C9F78095089581
:04020000F894FFCFA0
:0402040003010103EE
:00000001FF
