S0160000436F6D70616E696F6E5F437562652E737265638C
S113000009C016C015C024C013C012C011C010C04E
S11300100FC00EC011241FBECFE9CDBF20E0A0E663
S1130020B0E001C01D92A136B207E1F702D026C0AC
S1130030E7CF87B387BBB99ABA9ABB9ABC9A83B7FE
S1130040856083BF89B7826089BF7894C19AFFCFE6
S11300501F920F920FB60F9211248F93809160001C
S11300608F5F80936000833318F018BA1092600099
S11300708F910F900FBE0F901F901895F894FFCF9B
S9030000FC
