S0160000436F6D70616E696F6E5F437562652E737265638C
S113000009C021C020C040C01EC01DC01CC01BC0F0
S11300101AC019C011241FBECFE9CDBF10E0A0E65D
S1130020B0E0E6E1F1E002C005900D92A236B1071E
S1130030D9F720E0A2E6B0E001C01D92A336B207D2
S1130040E1F714D066C0DCCF813019F482E088BBBC
S11300500895823019F484E188BB0895833019F43B
S11300608CE188BB08958EE188BB089587B387BB74
S1130070B99ABA9ABB9ABC9A83B7856083BF89B789
S1130080826089BF7894FFCF1F920F920FB60F92B0
S113009011242F933F934F935F936F937F938F9389
S11300A09F93AF93BF93EF93FF939091620090FD62
S11300B002C018BA18C080916000833031F49830BF
S11300C020F49F5F9093620013C0BEDF80916000B4
S11300D08F5F80936000853030F01092620081E081
S11300E08093600005C0809162008F5F80936200FE
S11300F0FF91EF91BF91AF919F918F917F916F91FC
S11301005F914F913F912F910F900FBE0F901F90D1
S10901101895F894FFCFDE
S10501160300E0
S9030000FC
