:1000000009C016C015C023C013C012C011C010C053
:100010000FC00EC011241FBECFE9CDBF20E0A0E667
:10002000B0E001C01D92A236B207E1F702D02AC0AB
:10003000E7CF87B387BBB99ABA9ABB9ABC9A83B702
:10004000856083BF89B7826089BF7894FFCF1F9294
:100050000F920FB60F9211248F939F93809160009F
:100060008F5F80936000863030F098B382E08927FC
:1000700088BB109260009F918F910F900FBE0F90E0
:080080001F901895F894FFCFC2
:00000001FF
